{
  "_format": "hh-sol-artifact-1",
  "contractName": "ChainCertifyNFT",
  "sourceName": "contracts/ChainCertifyNFT.sol",
  "abi": [
    {
      "inputs": [
        {
          "internalType": "uint256",
          "name": "_MAX_SUPPLY",
          "type": "uint256"
        },
        {
          "internalType": "string",
          "name": "_baseURL",
          "type": "string"
        }
      ],
      "stateMutability": "nonpayable",
      "type": "constructor"
    },
    {
      "inputs": [
        {
          "internalType": "address",
          "name": "sender",
          "type": "address"
        },
        {
          "internalType": "uint256",
          "name": "tokenId",
          "type": "uint256"
        },
        {
          "internalType": "address",
          "name": "owner",
          "type": "address"
        }
      ],
      "name": "ERC721IncorrectOwner",
      "type": "error"
    },
    {
      "inputs": [
        {
          "internalType": "address",
          "name": "operator",
          "type": "address"
        },
        {
          "internalType": "uint256",
          "name": "tokenId",
          "type": "uint256"
        }
      ],
      "name": "ERC721InsufficientApproval",
      "type": "error"
    },
    {
      "inputs": [
        {
          "internalType": "address",
          "name": "approver",
          "type": "address"
        }
      ],
      "name": "ERC721InvalidApprover",
      "type": "error"
    },
    {
      "inputs": [
        {
          "internalType": "address",
          "name": "operator",
          "type": "address"
        }
      ],
      "name": "ERC721InvalidOperator",
      "type": "error"
    },
    {
      "inputs": [
        {
          "internalType": "address",
          "name": "owner",
          "type": "address"
        }
      ],
      "name": "ERC721InvalidOwner",
      "type": "error"
    },
    {
      "inputs": [
        {
          "internalType": "address",
          "name": "receiver",
          "type": "address"
        }
      ],
      "name": "ERC721InvalidReceiver",
      "type": "error"
    },
    {
      "inputs": [
        {
          "internalType": "address",
          "name": "sender",
          "type": "address"
        }
      ],
      "name": "ERC721InvalidSender",
      "type": "error"
    },
    {
      "inputs": [
        {
          "internalType": "uint256",
          "name": "tokenId",
          "type": "uint256"
        }
      ],
      "name": "ERC721NonexistentToken",
      "type": "error"
    },
    {
      "inputs": [
        {
          "internalType": "address",
          "name": "owner",
          "type": "address"
        }
      ],
      "name": "OwnableInvalidOwner",
      "type": "error"
    },
    {
      "inputs": [
        {
          "internalType": "address",
          "name": "account",
          "type": "address"
        }
      ],
      "name": "OwnableUnauthorizedAccount",
      "type": "error"
    },
    {
      "anonymous": false,
      "inputs": [
        {
          "indexed": true,
          "internalType": "address",
          "name": "owner",
          "type": "address"
        },
        {
          "indexed": true,
          "internalType": "address",
          "name": "approved",
          "type": "address"
        },
        {
          "indexed": true,
          "internalType": "uint256",
          "name": "tokenId",
          "type": "uint256"
        }
      ],
      "name": "Approval",
      "type": "event"
    },
    {
      "anonymous": false,
      "inputs": [
        {
          "indexed": true,
          "internalType": "address",
          "name": "owner",
          "type": "address"
        },
        {
          "indexed": true,
          "internalType": "address",
          "name": "operator",
          "type": "address"
        },
        {
          "indexed": false,
          "internalType": "bool",
          "name": "approved",
          "type": "bool"
        }
      ],
      "name": "ApprovalForAll",
      "type": "event"
    },
    {
      "anonymous": false,
      "inputs": [
        {
          "indexed": false,
          "internalType": "uint256",
          "name": "tokenId",
          "type": "uint256"
        },
        {
          "indexed": false,
          "internalType": "address",
          "name": "recipient",
          "type": "address"
        },
        {
          "indexed": false,
          "internalType": "bytes32",
          "name": "_certID",
          "type": "bytes32"
        }
      ],
      "name": "CertificateMinted",
      "type": "event"
    },
    {
      "anonymous": false,
      "inputs": [
        {
          "indexed": false,
          "internalType": "uint256",
          "name": "tokenId",
          "type": "uint256"
        }
      ],
      "name": "CertificateRevoked",
      "type": "event"
    },
    {
      "anonymous": false,
      "inputs": [
        {
          "indexed": true,
          "internalType": "address",
          "name": "previousOwner",
          "type": "address"
        },
        {
          "indexed": true,
          "internalType": "address",
          "name": "newOwner",
          "type": "address"
        }
      ],
      "name": "OwnershipTransferred",
      "type": "event"
    },
    {
      "anonymous": false,
      "inputs": [
        {
          "indexed": true,
          "internalType": "address",
          "name": "from",
          "type": "address"
        },
        {
          "indexed": true,
          "internalType": "address",
          "name": "to",
          "type": "address"
        },
        {
          "indexed": true,
          "internalType": "uint256",
          "name": "tokenId",
          "type": "uint256"
        }
      ],
      "name": "Transfer",
      "type": "event"
    },
    {
      "inputs": [],
      "name": "MAX_SUPPLY",
      "outputs": [
        {
          "internalType": "uint256",
          "name": "",
          "type": "uint256"
        }
      ],
      "stateMutability": "view",
      "type": "function"
    },
    {
      "inputs": [
        {
          "internalType": "address",
          "name": "to",
          "type": "address"
        },
        {
          "internalType": "uint256",
          "name": "tokenId",
          "type": "uint256"
        }
      ],
      "name": "approve",
      "outputs": [],
      "stateMutability": "nonpayable",
      "type": "function"
    },
    {
      "inputs": [
        {
          "internalType": "address",
          "name": "owner",
          "type": "address"
        }
      ],
      "name": "balanceOf",
      "outputs": [
        {
          "internalType": "uint256",
          "name": "",
          "type": "uint256"
        }
      ],
      "stateMutability": "view",
      "type": "function"
    },
    {
      "inputs": [],
      "name": "baseURI",
      "outputs": [
        {
          "internalType": "string",
          "name": "",
          "type": "string"
        }
      ],
      "stateMutability": "view",
      "type": "function"
    },
    {
      "inputs": [
        {
          "internalType": "uint256",
          "name": "",
          "type": "uint256"
        }
      ],
      "name": "certificateDetails",
      "outputs": [
        {
          "internalType": "string",
          "name": "names",
          "type": "string"
        },
        {
          "internalType": "string",
          "name": "institution",
          "type": "string"
        },
        {
          "internalType": "bytes32",
          "name": "certID",
          "type": "bytes32"
        },
        {
          "internalType": "string",
          "name": "courseName",
          "type": "string"
        },
        {
          "internalType": "string",
          "name": "issueDate",
          "type": "string"
        }
      ],
      "stateMutability": "view",
      "type": "function"
    },
    {
      "inputs": [
        {
          "internalType": "uint256",
          "name": "tokenId",
          "type": "uint256"
        }
      ],
      "name": "getApproved",
      "outputs": [
        {
          "internalType": "address",
          "name": "",
          "type": "address"
        }
      ],
      "stateMutability": "view",
      "type": "function"
    },
    {
      "inputs": [
        {
          "internalType": "uint256",
          "name": "tokenId",
          "type": "uint256"
        }
      ],
      "name": "getCertificateDetails",
      "outputs": [
        {
          "components": [
            {
              "internalType": "string",
              "name": "names",
              "type": "string"
            },
            {
              "internalType": "string",
              "name": "institution",
              "type": "string"
            },
            {
              "internalType": "bytes32",
              "name": "certID",
              "type": "bytes32"
            },
            {
              "internalType": "string",
              "name": "courseName",
              "type": "string"
            },
            {
              "internalType": "string",
              "name": "issueDate",
              "type": "string"
            }
          ],
          "internalType": "struct ChainCertifyNFT.CertificateNFT",
          "name": "",
          "type": "tuple"
        }
      ],
      "stateMutability": "view",
      "type": "function"
    },
    {
      "inputs": [
        {
          "internalType": "address",
          "name": "owner",
          "type": "address"
        },
        {
          "internalType": "address",
          "name": "operator",
          "type": "address"
        }
      ],
      "name": "isApprovedForAll",
      "outputs": [
        {
          "internalType": "bool",
          "name": "",
          "type": "bool"
        }
      ],
      "stateMutability": "view",
      "type": "function"
    },
    {
      "inputs": [
        {
          "internalType": "address",
          "name": "to",
          "type": "address"
        },
        {
          "internalType": "uint256",
          "name": "tokenId",
          "type": "uint256"
        },
        {
          "internalType": "string",
          "name": "_names",
          "type": "string"
        },
        {
          "internalType": "string",
          "name": "_institution",
          "type": "string"
        },
        {
          "internalType": "string",
          "name": "_courseName",
          "type": "string"
        },
        {
          "internalType": "string",
          "name": "_issueDate",
          "type": "string"
        }
      ],
      "name": "mintNFT",
      "outputs": [
        {
          "internalType": "bool",
          "name": "",
          "type": "bool"
        }
      ],
      "stateMutability": "nonpayable",
      "type": "function"
    },
    {
      "inputs": [],
      "name": "name",
      "outputs": [
        {
          "internalType": "string",
          "name": "",
          "type": "string"
        }
      ],
      "stateMutability": "view",
      "type": "function"
    },
    {
      "inputs": [],
      "name": "owner",
      "outputs": [
        {
          "internalType": "address",
          "name": "",
          "type": "address"
        }
      ],
      "stateMutability": "view",
      "type": "function"
    },
    {
      "inputs": [
        {
          "internalType": "uint256",
          "name": "tokenId",
          "type": "uint256"
        }
      ],
      "name": "ownerOf",
      "outputs": [
        {
          "internalType": "address",
          "name": "",
          "type": "address"
        }
      ],
      "stateMutability": "view",
      "type": "function"
    },
    {
      "inputs": [],
      "name": "renounceOwnership",
      "outputs": [],
      "stateMutability": "nonpayable",
      "type": "function"
    },
    {
      "inputs": [
        {
          "internalType": "uint256",
          "name": "tokenId",
          "type": "uint256"
        }
      ],
      "name": "revokeCertificate",
      "outputs": [],
      "stateMutability": "nonpayable",
      "type": "function"
    },
    {
      "inputs": [
        {
          "internalType": "address",
          "name": "from",
          "type": "address"
        },
        {
          "internalType": "address",
          "name": "to",
          "type": "address"
        },
        {
          "internalType": "uint256",
          "name": "tokenId",
          "type": "uint256"
        }
      ],
      "name": "safeTransferFrom",
      "outputs": [],
      "stateMutability": "nonpayable",
      "type": "function"
    },
    {
      "inputs": [
        {
          "internalType": "address",
          "name": "from",
          "type": "address"
        },
        {
          "internalType": "address",
          "name": "to",
          "type": "address"
        },
        {
          "internalType": "uint256",
          "name": "tokenId",
          "type": "uint256"
        },
        {
          "internalType": "bytes",
          "name": "data",
          "type": "bytes"
        }
      ],
      "name": "safeTransferFrom",
      "outputs": [],
      "stateMutability": "nonpayable",
      "type": "function"
    },
    {
      "inputs": [
        {
          "internalType": "address",
          "name": "operator",
          "type": "address"
        },
        {
          "internalType": "bool",
          "name": "approved",
          "type": "bool"
        }
      ],
      "name": "setApprovalForAll",
      "outputs": [],
      "stateMutability": "nonpayable",
      "type": "function"
    },
    {
      "inputs": [
        {
          "internalType": "bytes4",
          "name": "interfaceId",
          "type": "bytes4"
        }
      ],
      "name": "supportsInterface",
      "outputs": [
        {
          "internalType": "bool",
          "name": "",
          "type": "bool"
        }
      ],
      "stateMutability": "view",
      "type": "function"
    },
    {
      "inputs": [],
      "name": "symbol",
      "outputs": [
        {
          "internalType": "string",
          "name": "",
          "type": "string"
        }
      ],
      "stateMutability": "view",
      "type": "function"
    },
    {
      "inputs": [
        {
          "internalType": "uint256",
          "name": "tokenId",
          "type": "uint256"
        }
      ],
      "name": "tokenURI",
      "outputs": [
        {
          "internalType": "string",
          "name": "",
          "type": "string"
        }
      ],
      "stateMutability": "view",
      "type": "function"
    },
    {
      "inputs": [],
      "name": "totalSupply",
      "outputs": [
        {
          "internalType": "uint256",
          "name": "",
          "type": "uint256"
        }
      ],
      "stateMutability": "view",
      "type": "function"
    },
    {
      "inputs": [
        {
          "internalType": "address",
          "name": "from",
          "type": "address"
        },
        {
          "internalType": "address",
          "name": "to",
          "type": "address"
        },
        {
          "internalType": "uint256",
          "name": "tokenId",
          "type": "uint256"
        }
      ],
      "name": "transferFrom",
      "outputs": [],
      "stateMutability": "nonpayable",
      "type": "function"
    },
    {
      "inputs": [
        {
          "internalType": "address",
          "name": "newOwner",
          "type": "address"
        }
      ],
      "name": "transferOwnership",
      "outputs": [],
      "stateMutability": "nonpayable",
      "type": "function"
    }
  ],
  "bytecode": "0x60a060405234801561001057600080fd5b50604051613bf4380380613bf4833981810160405281019061003291906103d3565b336040518060400160405280601081526020017f496e737469747574696f6e204e616d65000000000000000000000000000000008152506040518060400160405280600481526020017f49544b4e0000000000000000000000000000000000000000000000000000000081525081600090816100ae9190610646565b5080600190816100be9190610646565b505050600073ffffffffffffffffffffffffffffffffffffffff168173ffffffffffffffffffffffffffffffffffffffff16036101335760006040517f1e4fbdf700000000000000000000000000000000000000000000000000000000815260040161012a9190610759565b60405180910390fd5b6101428161016260201b60201c565b508160808181525050806008908161015a9190610646565b505050610774565b6000600660009054906101000a900473ffffffffffffffffffffffffffffffffffffffff16905081600660006101000a81548173ffffffffffffffffffffffffffffffffffffffff021916908373ffffffffffffffffffffffffffffffffffffffff1602179055508173ffffffffffffffffffffffffffffffffffffffff168173ffffffffffffffffffffffffffffffffffffffff167f8be0079c531659141344cd1fd0a4f28419497f9722a3daafe3b4186f6b6457e060405160405180910390a35050565b6000604051905090565b600080fd5b600080fd5b6000819050919050565b61024f8161023c565b811461025a57600080fd5b50565b60008151905061026c81610246565b92915050565b600080fd5b600080fd5b6000601f19601f8301169050919050565b7f4e487b7100000000000000000000000000000000000000000000000000000000600052604160045260246000fd5b6102c58261027c565b810181811067ffffffffffffffff821117156102e4576102e361028d565b5b80604052505050565b60006102f7610228565b905061030382826102bc565b919050565b600067ffffffffffffffff8211156103235761032261028d565b5b61032c8261027c565b9050602081019050919050565b60005b8381101561035757808201518184015260208101905061033c565b60008484015250505050565b600061037661037184610308565b6102ed565b90508281526020810184848401111561039257610391610277565b5b61039d848285610339565b509392505050565b600082601f8301126103ba576103b9610272565b5b81516103ca848260208601610363565b91505092915050565b600080604083850312156103ea576103e9610232565b5b60006103f88582860161025d565b925050602083015167ffffffffffffffff81111561041957610418610237565b5b610425858286016103a5565b9150509250929050565b600081519050919050565b7f4e487b7100000000000000000000000000000000000000000000000000000000600052602260045260246000fd5b6000600282049050600182168061048157607f821691505b6020821081036104945761049361043a565b5b50919050565b60008190508160005260206000209050919050565b60006020601f8301049050919050565b600082821b905092915050565b6000600883026104fc7fffffffffffffffffffffffffffffffffffffffffffffffffffffffffffffffff826104bf565b61050686836104bf565b95508019841693508086168417925050509392505050565b6000819050919050565b600061054361053e6105398461023c565b61051e565b61023c565b9050919050565b6000819050919050565b61055d83610528565b6105716105698261054a565b8484546104cc565b825550505050565b600090565b610586610579565b610591818484610554565b505050565b5b818110156105b5576105aa60008261057e565b600181019050610597565b5050565b601f8211156105fa576105cb8161049a565b6105d4846104af565b810160208510156105e3578190505b6105f76105ef856104af565b830182610596565b50505b505050565b600082821c905092915050565b600061061d600019846008026105ff565b1980831691505092915050565b6000610636838361060c565b9150826002028217905092915050565b61064f8261042f565b67ffffffffffffffff8111156106685761066761028d565b5b6106728254610469565b61067d8282856105b9565b600060209050601f8311600181146106b0576000841561069e578287015190505b6106a8858261062a565b865550610710565b601f1984166106be8661049a565b60005b828110156106e6578489015182556001820191506020850194506020810190506106c1565b8683101561070357848901516106ff601f89168261060c565b8355505b6001600288020188555050505b505050505050565b600073ffffffffffffffffffffffffffffffffffffffff82169050919050565b600061074382610718565b9050919050565b61075381610738565b82525050565b600060208201905061076e600083018461074a565b92915050565b60805161345e610796600039600081816108540152610c5e015261345e6000f3fe608060405234801561001057600080fd5b506004361061014d5760003560e01c80636c0360eb116100c3578063a22cb4651161007c578063a22cb465146103a4578063a901fe5e146103c0578063b88d4fde146103f0578063c87b56dd1461040c578063e985e9c51461043c578063f2fde38b1461046c5761014d565b80636c0360eb146102e057806370a08231146102fe578063715018a61461032e5780637f005149146103385780638da5cb5b1461036857806395d89b41146103865761014d565b806318160ddd1161011557806318160ddd1461020857806323b872dd1461022657806332cb6b0c1461024257806342842e0e1461026057806344128c871461027c5780636352211e146102b05761014d565b806301ffc9a71461015257806306f5497e1461018257806306fdde031461019e578063081812fc146101bc578063095ea7b3146101ec575b600080fd5b61016c60048036038101906101679190612473565b610488565b60405161017991906124bb565b60405180910390f35b61019c6004803603810190610197919061250c565b61056a565b005b6101a6610686565b6040516101b391906125c9565b60405180910390f35b6101d660048036038101906101d1919061250c565b610718565b6040516101e3919061262c565b60405180910390f35b61020660048036038101906102019190612673565b610734565b005b61021061074a565b60405161021d91906126c2565b60405180910390f35b610240600480360381019061023b91906126dd565b610750565b005b61024a610852565b60405161025791906126c2565b60405180910390f35b61027a600480360381019061027591906126dd565b610876565b005b6102966004803603810190610291919061250c565b610896565b6040516102a7959493929190612749565b60405180910390f35b6102ca60048036038101906102c5919061250c565b610aec565b6040516102d7919061262c565b60405180910390f35b6102e8610afe565b6040516102f591906125c9565b60405180910390f35b610318600480360381019061031391906127b8565b610b8c565b60405161032591906126c2565b60405180910390f35b610336610c46565b005b610352600480360381019061034d919061291a565b610c5a565b60405161035f91906124bb565b60405180910390f35b610370610e59565b60405161037d919061262c565b60405180910390f35b61038e610e83565b60405161039b91906125c9565b60405180910390f35b6103be60048036038101906103b99190612a43565b610f15565b005b6103da60048036038101906103d5919061250c565b610f2b565b6040516103e79190612b67565b60405180910390f35b61040a60048036038101906104059190612c2a565b611205565b005b6104266004803603810190610421919061250c565b61122a565b60405161043391906125c9565b60405180910390f35b61045660048036038101906104519190612cad565b611293565b60405161046391906124bb565b60405180910390f35b610486600480360381019061048191906127b8565b611327565b005b60007f80ac58cd000000000000000000000000000000000000000000000000000000007bffffffffffffffffffffffffffffffffffffffffffffffffffffffff1916827bffffffffffffffffffffffffffffffffffffffffffffffffffffffff1916148061055357507f5b5e139f000000000000000000000000000000000000000000000000000000007bffffffffffffffffffffffffffffffffffffffffffffffffffffffff1916827bffffffffffffffffffffffffffffffffffffffffffffffffffffffff1916145b806105635750610562826113ad565b5b9050919050565b610572611417565b6000801b6009600083815260200190815260200160002060020154036105cd576040517f08c379a00000000000000000000000000000000000000000000000000000000081526004016105c490612d39565b60405180910390fd5b60096000828152602001908152602001600020600080820160006105f19190612378565b6001820160006106019190612378565b60028201600090556003820160006106199190612378565b6004820160006106299190612378565b50506106348161149e565b6007600081548092919061064790612d88565b91905055507fefa6c5f47ac2523bb4db18032377bf7fdce0fa9d86eddcae1ca9bba38be615d78160405161067b91906126c2565b60405180910390a150565b60606000805461069590612de0565b80601f01602080910402602001604051908101604052809291908181526020018280546106c190612de0565b801561070e5780601f106106e35761010080835404028352916020019161070e565b820191906000526020600020905b8154815290600101906020018083116106f157829003601f168201915b5050505050905090565b600061072382611524565b5061072d826115ac565b9050919050565b61074682826107416115e9565b6115f1565b5050565b60075481565b600073ffffffffffffffffffffffffffffffffffffffff168273ffffffffffffffffffffffffffffffffffffffff16036107c25760006040517f64a0ae920000000000000000000000000000000000000000000000000000000081526004016107b9919061262c565b60405180910390fd5b60006107d683836107d16115e9565b611603565b90508373ffffffffffffffffffffffffffffffffffffffff168173ffffffffffffffffffffffffffffffffffffffff161461084c578382826040517f64283d7b00000000000000000000000000000000000000000000000000000000815260040161084393929190612e11565b60405180910390fd5b50505050565b7f000000000000000000000000000000000000000000000000000000000000000081565b61089183838360405180602001604052806000815250611205565b505050565b60096020528060005260406000206000915090508060000180546108b990612de0565b80601f01602080910402602001604051908101604052809291908181526020018280546108e590612de0565b80156109325780601f1061090757610100808354040283529160200191610932565b820191906000526020600020905b81548152906001019060200180831161091557829003601f168201915b50505050509080600101805461094790612de0565b80601f016020809104026020016040519081016040528092919081815260200182805461097390612de0565b80156109c05780601f10610995576101008083540402835291602001916109c0565b820191906000526020600020905b8154815290600101906020018083116109a357829003601f168201915b5050505050908060020154908060030180546109db90612de0565b80601f0160208091040260200160405190810160405280929190818152602001828054610a0790612de0565b8015610a545780601f10610a2957610100808354040283529160200191610a54565b820191906000526020600020905b815481529060010190602001808311610a3757829003601f168201915b505050505090806004018054610a6990612de0565b80601f0160208091040260200160405190810160405280929190818152602001828054610a9590612de0565b8015610ae25780601f10610ab757610100808354040283529160200191610ae2565b820191906000526020600020905b815481529060010190602001808311610ac557829003601f168201915b5050505050905085565b6000610af782611524565b9050919050565b60088054610b0b90612de0565b80601f0160208091040260200160405190810160405280929190818152602001828054610b3790612de0565b8015610b845780601f10610b5957610100808354040283529160200191610b84565b820191906000526020600020905b815481529060010190602001808311610b6757829003601f168201915b505050505081565b60008073ffffffffffffffffffffffffffffffffffffffff168273ffffffffffffffffffffffffffffffffffffffff1603610bff5760006040517f89c62b64000000000000000000000000000000000000000000000000000000008152600401610bf6919061262c565b60405180910390fd5b600360008373ffffffffffffffffffffffffffffffffffffffff1673ffffffffffffffffffffffffffffffffffffffff168152602001908152602001600020549050919050565b610c4e611417565b610c58600061181d565b565b60007f000000000000000000000000000000000000000000000000000000000000000060075410610cc0576040517f08c379a0000000000000000000000000000000000000000000000000000000008152600401610cb790612e94565b60405180910390fd5b6000801b600960008881526020019081526020016000206002015414610d1b576040517f08c379a0000000000000000000000000000000000000000000000000000000008152600401610d1290612f00565b60405180910390fd5b6000858585858a604051602001610d36959493929190612f7d565b6040516020818303038152906040528051906020012090506040518060a0016040528087815260200186815260200182815260200185815260200184815250600960008981526020019081526020016000206000820151816000019081610d9d9190613178565b506020820151816001019081610db39190613178565b50604082015181600201556060820151816003019081610dd39190613178565b506080820151816004019081610de99190613178565b50905050610df788886118e3565b60076000815480929190610e0a9061324a565b91905055507f07fd2e060a2eb117439bdb96ef5f4f31fe587be6927263d0c5cb2b2fba4545dd878983604051610e4293929190613292565b60405180910390a160019150509695505050505050565b6000600660009054906101000a900473ffffffffffffffffffffffffffffffffffffffff16905090565b606060018054610e9290612de0565b80601f0160208091040260200160405190810160405280929190818152602001828054610ebe90612de0565b8015610f0b5780601f10610ee057610100808354040283529160200191610f0b565b820191906000526020600020905b815481529060010190602001808311610eee57829003601f168201915b5050505050905090565b610f27610f206115e9565b8383611901565b5050565b610f336123b8565b6000801b600960008481526020019081526020016000206002015403610f8e576040517f08c379a0000000000000000000000000000000000000000000000000000000008152600401610f8590612d39565b60405180910390fd5b600960008381526020019081526020016000206040518060a0016040529081600082018054610fbc90612de0565b80601f0160208091040260200160405190810160405280929190818152602001828054610fe890612de0565b80156110355780601f1061100a57610100808354040283529160200191611035565b820191906000526020600020905b81548152906001019060200180831161101857829003601f168201915b5050505050815260200160018201805461104e90612de0565b80601f016020809104026020016040519081016040528092919081815260200182805461107a90612de0565b80156110c75780601f1061109c576101008083540402835291602001916110c7565b820191906000526020600020905b8154815290600101906020018083116110aa57829003601f168201915b50505050508152602001600282015481526020016003820180546110ea90612de0565b80601f016020809104026020016040519081016040528092919081815260200182805461111690612de0565b80156111635780601f1061113857610100808354040283529160200191611163565b820191906000526020600020905b81548152906001019060200180831161114657829003601f168201915b5050505050815260200160048201805461117c90612de0565b80601f01602080910402602001604051908101604052809291908181526020018280546111a890612de0565b80156111f55780601f106111ca576101008083540402835291602001916111f5565b820191906000526020600020905b8154815290600101906020018083116111d857829003601f168201915b5050505050815250509050919050565b611210848484610750565b61122461121b6115e9565b85858585611a70565b50505050565b606061123582611524565b506000611240611c21565b90506000815111611260576040518060200160405280600081525061128b565b8061126a84611cb3565b60405160200161127b9291906132c9565b6040516020818303038152906040525b915050919050565b6000600560008473ffffffffffffffffffffffffffffffffffffffff1673ffffffffffffffffffffffffffffffffffffffff16815260200190815260200160002060008373ffffffffffffffffffffffffffffffffffffffff1673ffffffffffffffffffffffffffffffffffffffff16815260200190815260200160002060009054906101000a900460ff16905092915050565b61132f611417565b600073ffffffffffffffffffffffffffffffffffffffff168173ffffffffffffffffffffffffffffffffffffffff16036113a15760006040517f1e4fbdf7000000000000000000000000000000000000000000000000000000008152600401611398919061262c565b60405180910390fd5b6113aa8161181d565b50565b60007f01ffc9a7000000000000000000000000000000000000000000000000000000007bffffffffffffffffffffffffffffffffffffffffffffffffffffffff1916827bffffffffffffffffffffffffffffffffffffffffffffffffffffffff1916149050919050565b61141f6115e9565b73ffffffffffffffffffffffffffffffffffffffff1661143d610e59565b73ffffffffffffffffffffffffffffffffffffffff161461149c576114606115e9565b6040517f118cdaa7000000000000000000000000000000000000000000000000000000008152600401611493919061262c565b60405180910390fd5b565b60006114ad6000836000611603565b9050600073ffffffffffffffffffffffffffffffffffffffff168173ffffffffffffffffffffffffffffffffffffffff160361152057816040517f7e27328900000000000000000000000000000000000000000000000000000000815260040161151791906126c2565b60405180910390fd5b5050565b60008061153083611d81565b9050600073ffffffffffffffffffffffffffffffffffffffff168173ffffffffffffffffffffffffffffffffffffffff16036115a357826040517f7e27328900000000000000000000000000000000000000000000000000000000815260040161159a91906126c2565b60405180910390fd5b80915050919050565b60006004600083815260200190815260200160002060009054906101000a900473ffffffffffffffffffffffffffffffffffffffff169050919050565b600033905090565b6115fe8383836001611dbe565b505050565b60008061160f84611d81565b9050600073ffffffffffffffffffffffffffffffffffffffff168373ffffffffffffffffffffffffffffffffffffffff161461165157611650818486611f83565b5b600073ffffffffffffffffffffffffffffffffffffffff168173ffffffffffffffffffffffffffffffffffffffff16146116e257611693600085600080611dbe565b6001600360008373ffffffffffffffffffffffffffffffffffffffff1673ffffffffffffffffffffffffffffffffffffffff168152602001908152602001600020600082825403925050819055505b600073ffffffffffffffffffffffffffffffffffffffff168573ffffffffffffffffffffffffffffffffffffffff1614611765576001600360008773ffffffffffffffffffffffffffffffffffffffff1673ffffffffffffffffffffffffffffffffffffffff168152602001908152602001600020600082825401925050819055505b846002600086815260200190815260200160002060006101000a81548173ffffffffffffffffffffffffffffffffffffffff021916908373ffffffffffffffffffffffffffffffffffffffff160217905550838573ffffffffffffffffffffffffffffffffffffffff168273ffffffffffffffffffffffffffffffffffffffff167fddf252ad1be2c89b69c2b068fc378daa952ba7f163c4a11628f55a4df523b3ef60405160405180910390a4809150509392505050565b6000600660009054906101000a900473ffffffffffffffffffffffffffffffffffffffff16905081600660006101000a81548173ffffffffffffffffffffffffffffffffffffffff021916908373ffffffffffffffffffffffffffffffffffffffff1602179055508173ffffffffffffffffffffffffffffffffffffffff168173ffffffffffffffffffffffffffffffffffffffff167f8be0079c531659141344cd1fd0a4f28419497f9722a3daafe3b4186f6b6457e060405160405180910390a35050565b6118fd828260405180602001604052806000815250612047565b5050565b600073ffffffffffffffffffffffffffffffffffffffff168273ffffffffffffffffffffffffffffffffffffffff160361197257816040517f5b08ba18000000000000000000000000000000000000000000000000000000008152600401611969919061262c565b60405180910390fd5b80600560008573ffffffffffffffffffffffffffffffffffffffff1673ffffffffffffffffffffffffffffffffffffffff16815260200190815260200160002060008473ffffffffffffffffffffffffffffffffffffffff1673ffffffffffffffffffffffffffffffffffffffff16815260200190815260200160002060006101000a81548160ff0219169083151502179055508173ffffffffffffffffffffffffffffffffffffffff168373ffffffffffffffffffffffffffffffffffffffff167f17307eab39ab6107e8899845ad3d59bd9653f200f220920489ca2b5937696c3183604051611a6391906124bb565b60405180910390a3505050565b60008373ffffffffffffffffffffffffffffffffffffffff163b1115611c1a578273ffffffffffffffffffffffffffffffffffffffff1663150b7a02868685856040518563ffffffff1660e01b8152600401611acf9493929190613342565b6020604051808303816000875af1925050508015611b0b57506040513d601f19601f82011682018060405250810190611b0891906133a3565b60015b611b8f573d8060008114611b3b576040519150601f19603f3d011682016040523d82523d6000602084013e611b40565b606091505b506000815103611b8757836040517f64a0ae92000000000000000000000000000000000000000000000000000000008152600401611b7e919061262c565b60405180910390fd5b805181602001fd5b63150b7a0260e01b7bffffffffffffffffffffffffffffffffffffffffffffffffffffffff1916817bffffffffffffffffffffffffffffffffffffffffffffffffffffffff191614611c1857836040517f64a0ae92000000000000000000000000000000000000000000000000000000008152600401611c0f919061262c565b60405180910390fd5b505b5050505050565b606060088054611c3090612de0565b80601f0160208091040260200160405190810160405280929190818152602001828054611c5c90612de0565b8015611ca95780601f10611c7e57610100808354040283529160200191611ca9565b820191906000526020600020905b815481529060010190602001808311611c8c57829003601f168201915b5050505050905090565b606060006001611cc28461206b565b01905060008167ffffffffffffffff811115611ce157611ce06127ef565b5b6040519080825280601f01601f191660200182016040528015611d135781602001600182028036833780820191505090505b509050600082602001820190505b600115611d76578080600190039150507f3031323334353637383961626364656600000000000000000000000000000000600a86061a8153600a8581611d6a57611d696133d0565b5b04945060008503611d21575b819350505050919050565b60006002600083815260200190815260200160002060009054906101000a900473ffffffffffffffffffffffffffffffffffffffff169050919050565b8080611df75750600073ffffffffffffffffffffffffffffffffffffffff168273ffffffffffffffffffffffffffffffffffffffff1614155b15611f2b576000611e0784611524565b9050600073ffffffffffffffffffffffffffffffffffffffff168373ffffffffffffffffffffffffffffffffffffffff1614158015611e7257508273ffffffffffffffffffffffffffffffffffffffff168173ffffffffffffffffffffffffffffffffffffffff1614155b8015611e855750611e838184611293565b155b15611ec757826040517fa9fbf51f000000000000000000000000000000000000000000000000000000008152600401611ebe919061262c565b60405180910390fd5b8115611f2957838573ffffffffffffffffffffffffffffffffffffffff168273ffffffffffffffffffffffffffffffffffffffff167f8c5be1e5ebec7d5bd14f71427d1e84f3dd0314c0f7b2291e5b200ac8c7c3b92560405160405180910390a45b505b836004600085815260200190815260200160002060006101000a81548173ffffffffffffffffffffffffffffffffffffffff021916908373ffffffffffffffffffffffffffffffffffffffff16021790555050505050565b611f8e8383836121be565b61204257600073ffffffffffffffffffffffffffffffffffffffff168373ffffffffffffffffffffffffffffffffffffffff160361200357806040517f7e273289000000000000000000000000000000000000000000000000000000008152600401611ffa91906126c2565b60405180910390fd5b81816040517f177e802f0000000000000000000000000000000000000000000000000000000081526004016120399291906133ff565b60405180910390fd5b505050565b612051838361227f565b61206661205c6115e9565b6000858585611a70565b505050565b600080600090507a184f03e93ff9f4daa797ed6e38ed64bf6a1f01000000000000000083106120c9577a184f03e93ff9f4daa797ed6e38ed64bf6a1f01000000000000000083816120bf576120be6133d0565b5b0492506040810190505b6d04ee2d6d415b85acef81000000008310612106576d04ee2d6d415b85acef810000000083816120fc576120fb6133d0565b5b0492506020810190505b662386f26fc10000831061213557662386f26fc10000838161212b5761212a6133d0565b5b0492506010810190505b6305f5e100831061215e576305f5e1008381612154576121536133d0565b5b0492506008810190505b6127108310612183576127108381612179576121786133d0565b5b0492506004810190505b606483106121a6576064838161219c5761219b6133d0565b5b0492506002810190505b600a83106121b5576001810190505b80915050919050565b60008073ffffffffffffffffffffffffffffffffffffffff168373ffffffffffffffffffffffffffffffffffffffff161415801561227657508273ffffffffffffffffffffffffffffffffffffffff168473ffffffffffffffffffffffffffffffffffffffff16148061223757506122368484611293565b5b8061227557508273ffffffffffffffffffffffffffffffffffffffff1661225d836115ac565b73ffffffffffffffffffffffffffffffffffffffff16145b5b90509392505050565b600073ffffffffffffffffffffffffffffffffffffffff168273ffffffffffffffffffffffffffffffffffffffff16036122f15760006040517f64a0ae920000000000000000000000000000000000000000000000000000000081526004016122e8919061262c565b60405180910390fd5b60006122ff83836000611603565b9050600073ffffffffffffffffffffffffffffffffffffffff168173ffffffffffffffffffffffffffffffffffffffff16146123735760006040517f73c6ac6e00000000000000000000000000000000000000000000000000000000815260040161236a919061262c565b60405180910390fd5b505050565b50805461238490612de0565b6000825580601f1061239657506123b5565b601f0160209004906000526020600020908101906123b491906123ea565b5b50565b6040518060a0016040528060608152602001606081526020016000801916815260200160608152602001606081525090565b5b808211156124035760008160009055506001016123eb565b5090565b6000604051905090565b600080fd5b600080fd5b60007fffffffff0000000000000000000000000000000000000000000000000000000082169050919050565b6124508161241b565b811461245b57600080fd5b50565b60008135905061246d81612447565b92915050565b60006020828403121561248957612488612411565b5b60006124978482850161245e565b91505092915050565b60008115159050919050565b6124b5816124a0565b82525050565b60006020820190506124d060008301846124ac565b92915050565b6000819050919050565b6124e9816124d6565b81146124f457600080fd5b50565b600081359050612506816124e0565b92915050565b60006020828403121561252257612521612411565b5b6000612530848285016124f7565b91505092915050565b600081519050919050565b600082825260208201905092915050565b60005b83811015612573578082015181840152602081019050612558565b60008484015250505050565b6000601f19601f8301169050919050565b600061259b82612539565b6125a58185612544565b93506125b5818560208601612555565b6125be8161257f565b840191505092915050565b600060208201905081810360008301526125e38184612590565b905092915050565b600073ffffffffffffffffffffffffffffffffffffffff82169050919050565b6000612616826125eb565b9050919050565b6126268161260b565b82525050565b6000602082019050612641600083018461261d565b92915050565b6126508161260b565b811461265b57600080fd5b50565b60008135905061266d81612647565b92915050565b6000806040838503121561268a57612689612411565b5b60006126988582860161265e565b92505060206126a9858286016124f7565b9150509250929050565b6126bc816124d6565b82525050565b60006020820190506126d760008301846126b3565b92915050565b6000806000606084860312156126f6576126f5612411565b5b60006127048682870161265e565b93505060206127158682870161265e565b9250506040612726868287016124f7565b9150509250925092565b6000819050919050565b61274381612730565b82525050565b600060a08201905081810360008301526127638188612590565b905081810360208301526127778187612590565b9050612786604083018661273a565b81810360608301526127988185612590565b905081810360808301526127ac8184612590565b90509695505050505050565b6000602082840312156127ce576127cd612411565b5b60006127dc8482850161265e565b91505092915050565b600080fd5b600080fd5b7f4e487b7100000000000000000000000000000000000000000000000000000000600052604160045260246000fd5b6128278261257f565b810181811067ffffffffffffffff82111715612846576128456127ef565b5b80604052505050565b6000612859612407565b9050612865828261281e565b919050565b600067ffffffffffffffff821115612885576128846127ef565b5b61288e8261257f565b9050602081019050919050565b82818337600083830152505050565b60006128bd6128b88461286a565b61284f565b9050828152602081018484840111156128d9576128d86127ea565b5b6128e484828561289b565b509392505050565b600082601f830112612901576129006127e5565b5b81356129118482602086016128aa565b91505092915050565b60008060008060008060c0878903121561293757612936612411565b5b600061294589828a0161265e565b965050602061295689828a016124f7565b955050604087013567ffffffffffffffff81111561297757612976612416565b5b61298389828a016128ec565b945050606087013567ffffffffffffffff8111156129a4576129a3612416565b5b6129b089828a016128ec565b935050608087013567ffffffffffffffff8111156129d1576129d0612416565b5b6129dd89828a016128ec565b92505060a087013567ffffffffffffffff8111156129fe576129fd612416565b5b612a0a89828a016128ec565b9150509295509295509295565b612a20816124a0565b8114612a2b57600080fd5b50565b600081359050612a3d81612a17565b92915050565b60008060408385031215612a5a57612a59612411565b5b6000612a688582860161265e565b9250506020612a7985828601612a2e565b9150509250929050565b600082825260208201905092915050565b6000612a9f82612539565b612aa98185612a83565b9350612ab9818560208601612555565b612ac28161257f565b840191505092915050565b612ad681612730565b82525050565b600060a0830160008301518482036000860152612af98282612a94565b91505060208301518482036020860152612b138282612a94565b9150506040830151612b286040860182612acd565b5060608301518482036060860152612b408282612a94565b91505060808301518482036080860152612b5a8282612a94565b9150508091505092915050565b60006020820190508181036000830152612b818184612adc565b905092915050565b600067ffffffffffffffff821115612ba457612ba36127ef565b5b612bad8261257f565b9050602081019050919050565b6000612bcd612bc884612b89565b61284f565b905082815260208101848484011115612be957612be86127ea565b5b612bf484828561289b565b509392505050565b600082601f830112612c1157612c106127e5565b5b8135612c21848260208601612bba565b91505092915050565b60008060008060808587031215612c4457612c43612411565b5b6000612c528782880161265e565b9450506020612c638782880161265e565b9350506040612c74878288016124f7565b925050606085013567ffffffffffffffff811115612c9557612c94612416565b5b612ca187828801612bfc565b91505092959194509250565b60008060408385031215612cc457612cc3612411565b5b6000612cd28582860161265e565b9250506020612ce38582860161265e565b9150509250929050565b7f436572746966696361746520646f6573206e6f74206578697374000000000000600082015250565b6000612d23601a83612544565b9150612d2e82612ced565b602082019050919050565b60006020820190508181036000830152612d5281612d16565b9050919050565b7f4e487b7100000000000000000000000000000000000000000000000000000000600052601160045260246000fd5b6000612d93826124d6565b915060008203612da657612da5612d59565b5b600182039050919050565b7f4e487b7100000000000000000000000000000000000000000000000000000000600052602260045260246000fd5b60006002820490506001821680612df857607f821691505b602082108103612e0b57612e0a612db1565b5b50919050565b6000606082019050612e26600083018661261d565b612e3360208301856126b3565b612e40604083018461261d565b949350505050565b7f4d617820737570706c7920726561636865640000000000000000000000000000600082015250565b6000612e7e601283612544565b9150612e8982612e48565b602082019050919050565b60006020820190508181036000830152612ead81612e71565b9050919050565b7f546f6b656e20494420616c726561647920657869737473000000000000000000600082015250565b6000612eea601783612544565b9150612ef582612eb4565b602082019050919050565b60006020820190508181036000830152612f1981612edd565b9050919050565b600081905092915050565b6000612f3682612539565b612f408185612f20565b9350612f50818560208601612555565b80840191505092915050565b6000819050919050565b612f77612f72826124d6565b612f5c565b82525050565b6000612f898288612f2b565b9150612f958287612f2b565b9150612fa18286612f2b565b9150612fad8285612f2b565b9150612fb98284612f66565b6020820191508190509695505050505050565b60008190508160005260206000209050919050565b60006020601f8301049050919050565b600082821b905092915050565b60006008830261302e7fffffffffffffffffffffffffffffffffffffffffffffffffffffffffffffffff82612ff1565b6130388683612ff1565b95508019841693508086168417925050509392505050565b6000819050919050565b600061307561307061306b846124d6565b613050565b6124d6565b9050919050565b6000819050919050565b61308f8361305a565b6130a361309b8261307c565b848454612ffe565b825550505050565b600090565b6130b86130ab565b6130c3818484613086565b505050565b5b818110156130e7576130dc6000826130b0565b6001810190506130c9565b5050565b601f82111561312c576130fd81612fcc565b61310684612fe1565b81016020851015613115578190505b61312961312185612fe1565b8301826130c8565b50505b505050565b600082821c905092915050565b600061314f60001984600802613131565b1980831691505092915050565b6000613168838361313e565b9150826002028217905092915050565b61318182612539565b67ffffffffffffffff81111561319a576131996127ef565b5b6131a48254612de0565b6131af8282856130eb565b600060209050601f8311600181146131e257600084156131d0578287015190505b6131da858261315c565b865550613242565b601f1984166131f086612fcc565b60005b82811015613218578489015182556001820191506020850194506020810190506131f3565b868310156132355784890151613231601f89168261313e565b8355505b6001600288020188555050505b505050505050565b6000613255826124d6565b91507fffffffffffffffffffffffffffffffffffffffffffffffffffffffffffffffff820361328757613286612d59565b5b600182019050919050565b60006060820190506132a760008301866126b3565b6132b4602083018561261d565b6132c1604083018461273a565b949350505050565b60006132d58285612f2b565b91506132e18284612f2b565b91508190509392505050565b600081519050919050565b600082825260208201905092915050565b6000613314826132ed565b61331e81856132f8565b935061332e818560208601612555565b6133378161257f565b840191505092915050565b6000608082019050613357600083018761261d565b613364602083018661261d565b61337160408301856126b3565b81810360608301526133838184613309565b905095945050505050565b60008151905061339d81612447565b92915050565b6000602082840312156133b9576133b8612411565b5b60006133c78482850161338e565b91505092915050565b7f4e487b7100000000000000000000000000000000000000000000000000000000600052601260045260246000fd5b6000604082019050613414600083018561261d565b61342160208301846126b3565b939250505056fea2646970667358221220f3be385b5b548a2a944b946809b79ecc8dd5b684731c263346d154ee1e7b911d64736f6c634300081b0033",
  "linkReferences": {},
  "deployedLinkReferences": {}
}