{
  "_format": "hh-sol-artifact-1",
  "contractName": "ChainCertifyNFT",
  "sourceName": "contracts/ChainCertifyNFT.sol",
  "abi": [
    {
      "inputs": [
        {
          "internalType": "uint256",
          "name": "_MAX_SUPPLY",
          "type": "uint256"
        },
        {
          "internalType": "string",
          "name": "_baseURL",
          "type": "string"
        }
      ],
      "stateMutability": "nonpayable",
      "type": "constructor"
    },
    {
      "inputs": [
        {
          "internalType": "address",
          "name": "sender",
          "type": "address"
        },
        {
          "internalType": "uint256",
          "name": "tokenId",
          "type": "uint256"
        },
        {
          "internalType": "address",
          "name": "owner",
          "type": "address"
        }
      ],
      "name": "ERC721IncorrectOwner",
      "type": "error"
    },
    {
      "inputs": [
        {
          "internalType": "address",
          "name": "operator",
          "type": "address"
        },
        {
          "internalType": "uint256",
          "name": "tokenId",
          "type": "uint256"
        }
      ],
      "name": "ERC721InsufficientApproval",
      "type": "error"
    },
    {
      "inputs": [
        {
          "internalType": "address",
          "name": "approver",
          "type": "address"
        }
      ],
      "name": "ERC721InvalidApprover",
      "type": "error"
    },
    {
      "inputs": [
        {
          "internalType": "address",
          "name": "operator",
          "type": "address"
        }
      ],
      "name": "ERC721InvalidOperator",
      "type": "error"
    },
    {
      "inputs": [
        {
          "internalType": "address",
          "name": "owner",
          "type": "address"
        }
      ],
      "name": "ERC721InvalidOwner",
      "type": "error"
    },
    {
      "inputs": [
        {
          "internalType": "address",
          "name": "receiver",
          "type": "address"
        }
      ],
      "name": "ERC721InvalidReceiver",
      "type": "error"
    },
    {
      "inputs": [
        {
          "internalType": "address",
          "name": "sender",
          "type": "address"
        }
      ],
      "name": "ERC721InvalidSender",
      "type": "error"
    },
    {
      "inputs": [
        {
          "internalType": "uint256",
          "name": "tokenId",
          "type": "uint256"
        }
      ],
      "name": "ERC721NonexistentToken",
      "type": "error"
    },
    {
      "inputs": [
        {
          "internalType": "address",
          "name": "owner",
          "type": "address"
        }
      ],
      "name": "OwnableInvalidOwner",
      "type": "error"
    },
    {
      "inputs": [
        {
          "internalType": "address",
          "name": "account",
          "type": "address"
        }
      ],
      "name": "OwnableUnauthorizedAccount",
      "type": "error"
    },
    {
      "anonymous": false,
      "inputs": [
        {
          "indexed": true,
          "internalType": "address",
          "name": "owner",
          "type": "address"
        },
        {
          "indexed": true,
          "internalType": "address",
          "name": "approved",
          "type": "address"
        },
        {
          "indexed": true,
          "internalType": "uint256",
          "name": "tokenId",
          "type": "uint256"
        }
      ],
      "name": "Approval",
      "type": "event"
    },
    {
      "anonymous": false,
      "inputs": [
        {
          "indexed": true,
          "internalType": "address",
          "name": "owner",
          "type": "address"
        },
        {
          "indexed": true,
          "internalType": "address",
          "name": "operator",
          "type": "address"
        },
        {
          "indexed": false,
          "internalType": "bool",
          "name": "approved",
          "type": "bool"
        }
      ],
      "name": "ApprovalForAll",
      "type": "event"
    },
    {
      "anonymous": false,
      "inputs": [
        {
          "indexed": false,
          "internalType": "uint256",
          "name": "tokenId",
          "type": "uint256"
        },
        {
          "indexed": false,
          "internalType": "address",
          "name": "recipient",
          "type": "address"
        }
      ],
      "name": "CertificateMinted",
      "type": "event"
    },
    {
      "anonymous": false,
      "inputs": [
        {
          "indexed": false,
          "internalType": "uint256",
          "name": "tokenId",
          "type": "uint256"
        }
      ],
      "name": "CertificateRevoked",
      "type": "event"
    },
    {
      "anonymous": false,
      "inputs": [
        {
          "indexed": true,
          "internalType": "address",
          "name": "previousOwner",
          "type": "address"
        },
        {
          "indexed": true,
          "internalType": "address",
          "name": "newOwner",
          "type": "address"
        }
      ],
      "name": "OwnershipTransferred",
      "type": "event"
    },
    {
      "anonymous": false,
      "inputs": [
        {
          "indexed": true,
          "internalType": "address",
          "name": "from",
          "type": "address"
        },
        {
          "indexed": true,
          "internalType": "address",
          "name": "to",
          "type": "address"
        },
        {
          "indexed": true,
          "internalType": "uint256",
          "name": "tokenId",
          "type": "uint256"
        }
      ],
      "name": "Transfer",
      "type": "event"
    },
    {
      "inputs": [],
      "name": "MAX_SUPPLY",
      "outputs": [
        {
          "internalType": "uint256",
          "name": "",
          "type": "uint256"
        }
      ],
      "stateMutability": "view",
      "type": "function"
    },
    {
      "inputs": [
        {
          "internalType": "address",
          "name": "to",
          "type": "address"
        },
        {
          "internalType": "uint256",
          "name": "tokenId",
          "type": "uint256"
        }
      ],
      "name": "approve",
      "outputs": [],
      "stateMutability": "nonpayable",
      "type": "function"
    },
    {
      "inputs": [
        {
          "internalType": "address",
          "name": "owner",
          "type": "address"
        }
      ],
      "name": "balanceOf",
      "outputs": [
        {
          "internalType": "uint256",
          "name": "",
          "type": "uint256"
        }
      ],
      "stateMutability": "view",
      "type": "function"
    },
    {
      "inputs": [],
      "name": "baseURI",
      "outputs": [
        {
          "internalType": "string",
          "name": "",
          "type": "string"
        }
      ],
      "stateMutability": "view",
      "type": "function"
    },
    {
      "inputs": [
        {
          "internalType": "uint256",
          "name": "",
          "type": "uint256"
        }
      ],
      "name": "certificateDetails",
      "outputs": [
        {
          "internalType": "string",
          "name": "names",
          "type": "string"
        },
        {
          "internalType": "string",
          "name": "institution",
          "type": "string"
        },
        {
          "internalType": "bytes32",
          "name": "certID",
          "type": "bytes32"
        },
        {
          "internalType": "string",
          "name": "courseName",
          "type": "string"
        },
        {
          "internalType": "string",
          "name": "issueDate",
          "type": "string"
        }
      ],
      "stateMutability": "view",
      "type": "function"
    },
    {
      "inputs": [
        {
          "internalType": "uint256",
          "name": "tokenId",
          "type": "uint256"
        }
      ],
      "name": "getApproved",
      "outputs": [
        {
          "internalType": "address",
          "name": "",
          "type": "address"
        }
      ],
      "stateMutability": "view",
      "type": "function"
    },
    {
      "inputs": [
        {
          "internalType": "uint256",
          "name": "tokenId",
          "type": "uint256"
        }
      ],
      "name": "getCertificateDetails",
      "outputs": [
        {
          "components": [
            {
              "internalType": "string",
              "name": "names",
              "type": "string"
            },
            {
              "internalType": "string",
              "name": "institution",
              "type": "string"
            },
            {
              "internalType": "bytes32",
              "name": "certID",
              "type": "bytes32"
            },
            {
              "internalType": "string",
              "name": "courseName",
              "type": "string"
            },
            {
              "internalType": "string",
              "name": "issueDate",
              "type": "string"
            }
          ],
          "internalType": "struct ChainCertifyNFT.CertificateNFT",
          "name": "",
          "type": "tuple"
        }
      ],
      "stateMutability": "view",
      "type": "function"
    },
    {
      "inputs": [
        {
          "internalType": "address",
          "name": "owner",
          "type": "address"
        },
        {
          "internalType": "address",
          "name": "operator",
          "type": "address"
        }
      ],
      "name": "isApprovedForAll",
      "outputs": [
        {
          "internalType": "bool",
          "name": "",
          "type": "bool"
        }
      ],
      "stateMutability": "view",
      "type": "function"
    },
    {
      "inputs": [
        {
          "internalType": "address",
          "name": "to",
          "type": "address"
        },
        {
          "internalType": "uint256",
          "name": "tokenId",
          "type": "uint256"
        },
        {
          "internalType": "string",
          "name": "_names",
          "type": "string"
        },
        {
          "internalType": "string",
          "name": "_institution",
          "type": "string"
        },
        {
          "internalType": "string",
          "name": "_courseName",
          "type": "string"
        },
        {
          "internalType": "string",
          "name": "_issueDate",
          "type": "string"
        }
      ],
      "name": "mintNFT",
      "outputs": [
        {
          "internalType": "bool",
          "name": "",
          "type": "bool"
        }
      ],
      "stateMutability": "nonpayable",
      "type": "function"
    },
    {
      "inputs": [],
      "name": "name",
      "outputs": [
        {
          "internalType": "string",
          "name": "",
          "type": "string"
        }
      ],
      "stateMutability": "view",
      "type": "function"
    },
    {
      "inputs": [],
      "name": "owner",
      "outputs": [
        {
          "internalType": "address",
          "name": "",
          "type": "address"
        }
      ],
      "stateMutability": "view",
      "type": "function"
    },
    {
      "inputs": [
        {
          "internalType": "uint256",
          "name": "tokenId",
          "type": "uint256"
        }
      ],
      "name": "ownerOf",
      "outputs": [
        {
          "internalType": "address",
          "name": "",
          "type": "address"
        }
      ],
      "stateMutability": "view",
      "type": "function"
    },
    {
      "inputs": [],
      "name": "renounceOwnership",
      "outputs": [],
      "stateMutability": "nonpayable",
      "type": "function"
    },
    {
      "inputs": [
        {
          "internalType": "uint256",
          "name": "tokenId",
          "type": "uint256"
        }
      ],
      "name": "revokeCertificate",
      "outputs": [],
      "stateMutability": "nonpayable",
      "type": "function"
    },
    {
      "inputs": [
        {
          "internalType": "address",
          "name": "from",
          "type": "address"
        },
        {
          "internalType": "address",
          "name": "to",
          "type": "address"
        },
        {
          "internalType": "uint256",
          "name": "tokenId",
          "type": "uint256"
        }
      ],
      "name": "safeTransferFrom",
      "outputs": [],
      "stateMutability": "nonpayable",
      "type": "function"
    },
    {
      "inputs": [
        {
          "internalType": "address",
          "name": "from",
          "type": "address"
        },
        {
          "internalType": "address",
          "name": "to",
          "type": "address"
        },
        {
          "internalType": "uint256",
          "name": "tokenId",
          "type": "uint256"
        },
        {
          "internalType": "bytes",
          "name": "data",
          "type": "bytes"
        }
      ],
      "name": "safeTransferFrom",
      "outputs": [],
      "stateMutability": "nonpayable",
      "type": "function"
    },
    {
      "inputs": [
        {
          "internalType": "address",
          "name": "operator",
          "type": "address"
        },
        {
          "internalType": "bool",
          "name": "approved",
          "type": "bool"
        }
      ],
      "name": "setApprovalForAll",
      "outputs": [],
      "stateMutability": "nonpayable",
      "type": "function"
    },
    {
      "inputs": [
        {
          "internalType": "bytes4",
          "name": "interfaceId",
          "type": "bytes4"
        }
      ],
      "name": "supportsInterface",
      "outputs": [
        {
          "internalType": "bool",
          "name": "",
          "type": "bool"
        }
      ],
      "stateMutability": "view",
      "type": "function"
    },
    {
      "inputs": [],
      "name": "symbol",
      "outputs": [
        {
          "internalType": "string",
          "name": "",
          "type": "string"
        }
      ],
      "stateMutability": "view",
      "type": "function"
    },
    {
      "inputs": [
        {
          "internalType": "uint256",
          "name": "tokenId",
          "type": "uint256"
        }
      ],
      "name": "tokenURI",
      "outputs": [
        {
          "internalType": "string",
          "name": "",
          "type": "string"
        }
      ],
      "stateMutability": "view",
      "type": "function"
    },
    {
      "inputs": [],
      "name": "totalSupply",
      "outputs": [
        {
          "internalType": "uint256",
          "name": "",
          "type": "uint256"
        }
      ],
      "stateMutability": "view",
      "type": "function"
    },
    {
      "inputs": [
        {
          "internalType": "address",
          "name": "from",
          "type": "address"
        },
        {
          "internalType": "address",
          "name": "to",
          "type": "address"
        },
        {
          "internalType": "uint256",
          "name": "tokenId",
          "type": "uint256"
        }
      ],
      "name": "transferFrom",
      "outputs": [],
      "stateMutability": "nonpayable",
      "type": "function"
    },
    {
      "inputs": [
        {
          "internalType": "address",
          "name": "newOwner",
          "type": "address"
        }
      ],
      "name": "transferOwnership",
      "outputs": [],
      "stateMutability": "nonpayable",
      "type": "function"
    }
  ],
  "bytecode": "0x60a060405234801561001057600080fd5b50604051613be4380380613be4833981810160405281019061003291906103d3565b336040518060400160405280601081526020017f496e737469747574696f6e204e616d65000000000000000000000000000000008152506040518060400160405280600481526020017f49544b4e0000000000000000000000000000000000000000000000000000000081525081600090816100ae9190610646565b5080600190816100be9190610646565b505050600073ffffffffffffffffffffffffffffffffffffffff168173ffffffffffffffffffffffffffffffffffffffff16036101335760006040517f1e4fbdf700000000000000000000000000000000000000000000000000000000815260040161012a9190610759565b60405180910390fd5b6101428161016260201b60201c565b508160808181525050806008908161015a9190610646565b505050610774565b6000600660009054906101000a900473ffffffffffffffffffffffffffffffffffffffff16905081600660006101000a81548173ffffffffffffffffffffffffffffffffffffffff021916908373ffffffffffffffffffffffffffffffffffffffff1602179055508173ffffffffffffffffffffffffffffffffffffffff168173ffffffffffffffffffffffffffffffffffffffff167f8be0079c531659141344cd1fd0a4f28419497f9722a3daafe3b4186f6b6457e060405160405180910390a35050565b6000604051905090565b600080fd5b600080fd5b6000819050919050565b61024f8161023c565b811461025a57600080fd5b50565b60008151905061026c81610246565b92915050565b600080fd5b600080fd5b6000601f19601f8301169050919050565b7f4e487b7100000000000000000000000000000000000000000000000000000000600052604160045260246000fd5b6102c58261027c565b810181811067ffffffffffffffff821117156102e4576102e361028d565b5b80604052505050565b60006102f7610228565b905061030382826102bc565b919050565b600067ffffffffffffffff8211156103235761032261028d565b5b61032c8261027c565b9050602081019050919050565b60005b8381101561035757808201518184015260208101905061033c565b60008484015250505050565b600061037661037184610308565b6102ed565b90508281526020810184848401111561039257610391610277565b5b61039d848285610339565b509392505050565b600082601f8301126103ba576103b9610272565b5b81516103ca848260208601610363565b91505092915050565b600080604083850312156103ea576103e9610232565b5b60006103f88582860161025d565b925050602083015167ffffffffffffffff81111561041957610418610237565b5b610425858286016103a5565b9150509250929050565b600081519050919050565b7f4e487b7100000000000000000000000000000000000000000000000000000000600052602260045260246000fd5b6000600282049050600182168061048157607f821691505b6020821081036104945761049361043a565b5b50919050565b60008190508160005260206000209050919050565b60006020601f8301049050919050565b600082821b905092915050565b6000600883026104fc7fffffffffffffffffffffffffffffffffffffffffffffffffffffffffffffffff826104bf565b61050686836104bf565b95508019841693508086168417925050509392505050565b6000819050919050565b600061054361053e6105398461023c565b61051e565b61023c565b9050919050565b6000819050919050565b61055d83610528565b6105716105698261054a565b8484546104cc565b825550505050565b600090565b610586610579565b610591818484610554565b505050565b5b818110156105b5576105aa60008261057e565b600181019050610597565b5050565b601f8211156105fa576105cb8161049a565b6105d4846104af565b810160208510156105e3578190505b6105f76105ef856104af565b830182610596565b50505b505050565b600082821c905092915050565b600061061d600019846008026105ff565b1980831691505092915050565b6000610636838361060c565b9150826002028217905092915050565b61064f8261042f565b67ffffffffffffffff8111156106685761066761028d565b5b6106728254610469565b61067d8282856105b9565b600060209050601f8311600181146106b0576000841561069e578287015190505b6106a8858261062a565b865550610710565b601f1984166106be8661049a565b60005b828110156106e6578489015182556001820191506020850194506020810190506106c1565b8683101561070357848901516106ff601f89168261060c565b8355505b6001600288020188555050505b505050505050565b600073ffffffffffffffffffffffffffffffffffffffff82169050919050565b600061074382610718565b9050919050565b61075381610738565b82525050565b600060208201905061076e600083018461074a565b92915050565b60805161344e610796600039600081816108540152610c5e015261344e6000f3fe608060405234801561001057600080fd5b506004361061014d5760003560e01c80636c0360eb116100c3578063a22cb4651161007c578063a22cb465146103a4578063a901fe5e146103c0578063b88d4fde146103f0578063c87b56dd1461040c578063e985e9c51461043c578063f2fde38b1461046c5761014d565b80636c0360eb146102e057806370a08231146102fe578063715018a61461032e5780637f005149146103385780638da5cb5b1461036857806395d89b41146103865761014d565b806318160ddd1161011557806318160ddd1461020857806323b872dd1461022657806332cb6b0c1461024257806342842e0e1461026057806344128c871461027c5780636352211e146102b05761014d565b806301ffc9a71461015257806306f5497e1461018257806306fdde031461019e578063081812fc146101bc578063095ea7b3146101ec575b600080fd5b61016c60048036038101906101679190612471565b610488565b60405161017991906124b9565b60405180910390f35b61019c6004803603810190610197919061250a565b61056a565b005b6101a6610686565b6040516101b391906125c7565b60405180910390f35b6101d660048036038101906101d1919061250a565b610718565b6040516101e3919061262a565b60405180910390f35b61020660048036038101906102019190612671565b610734565b005b61021061074a565b60405161021d91906126c0565b60405180910390f35b610240600480360381019061023b91906126db565b610750565b005b61024a610852565b60405161025791906126c0565b60405180910390f35b61027a600480360381019061027591906126db565b610876565b005b6102966004803603810190610291919061250a565b610896565b6040516102a7959493929190612747565b60405180910390f35b6102ca60048036038101906102c5919061250a565b610aec565b6040516102d7919061262a565b60405180910390f35b6102e8610afe565b6040516102f591906125c7565b60405180910390f35b610318600480360381019061031391906127b6565b610b8c565b60405161032591906126c0565b60405180910390f35b610336610c46565b005b610352600480360381019061034d9190612918565b610c5a565b60405161035f91906124b9565b60405180910390f35b610370610e57565b60405161037d919061262a565b60405180910390f35b61038e610e81565b60405161039b91906125c7565b60405180910390f35b6103be60048036038101906103b99190612a41565b610f13565b005b6103da60048036038101906103d5919061250a565b610f29565b6040516103e79190612b65565b60405180910390f35b61040a60048036038101906104059190612c28565b611203565b005b6104266004803603810190610421919061250a565b611228565b60405161043391906125c7565b60405180910390f35b61045660048036038101906104519190612cab565b611291565b60405161046391906124b9565b60405180910390f35b610486600480360381019061048191906127b6565b611325565b005b60007f80ac58cd000000000000000000000000000000000000000000000000000000007bffffffffffffffffffffffffffffffffffffffffffffffffffffffff1916827bffffffffffffffffffffffffffffffffffffffffffffffffffffffff1916148061055357507f5b5e139f000000000000000000000000000000000000000000000000000000007bffffffffffffffffffffffffffffffffffffffffffffffffffffffff1916827bffffffffffffffffffffffffffffffffffffffffffffffffffffffff1916145b806105635750610562826113ab565b5b9050919050565b610572611415565b6000801b6009600083815260200190815260200160002060020154036105cd576040517f08c379a00000000000000000000000000000000000000000000000000000000081526004016105c490612d37565b60405180910390fd5b60096000828152602001908152602001600020600080820160006105f19190612376565b6001820160006106019190612376565b60028201600090556003820160006106199190612376565b6004820160006106299190612376565b50506106348161149c565b6007600081548092919061064790612d86565b91905055507fefa6c5f47ac2523bb4db18032377bf7fdce0fa9d86eddcae1ca9bba38be615d78160405161067b91906126c0565b60405180910390a150565b60606000805461069590612dde565b80601f01602080910402602001604051908101604052809291908181526020018280546106c190612dde565b801561070e5780601f106106e35761010080835404028352916020019161070e565b820191906000526020600020905b8154815290600101906020018083116106f157829003601f168201915b5050505050905090565b600061072382611522565b5061072d826115aa565b9050919050565b61074682826107416115e7565b6115ef565b5050565b60075481565b600073ffffffffffffffffffffffffffffffffffffffff168273ffffffffffffffffffffffffffffffffffffffff16036107c25760006040517f64a0ae920000000000000000000000000000000000000000000000000000000081526004016107b9919061262a565b60405180910390fd5b60006107d683836107d16115e7565b611601565b90508373ffffffffffffffffffffffffffffffffffffffff168173ffffffffffffffffffffffffffffffffffffffff161461084c578382826040517f64283d7b00000000000000000000000000000000000000000000000000000000815260040161084393929190612e0f565b60405180910390fd5b50505050565b7f000000000000000000000000000000000000000000000000000000000000000081565b61089183838360405180602001604052806000815250611203565b505050565b60096020528060005260406000206000915090508060000180546108b990612dde565b80601f01602080910402602001604051908101604052809291908181526020018280546108e590612dde565b80156109325780601f1061090757610100808354040283529160200191610932565b820191906000526020600020905b81548152906001019060200180831161091557829003601f168201915b50505050509080600101805461094790612dde565b80601f016020809104026020016040519081016040528092919081815260200182805461097390612dde565b80156109c05780601f10610995576101008083540402835291602001916109c0565b820191906000526020600020905b8154815290600101906020018083116109a357829003601f168201915b5050505050908060020154908060030180546109db90612dde565b80601f0160208091040260200160405190810160405280929190818152602001828054610a0790612dde565b8015610a545780601f10610a2957610100808354040283529160200191610a54565b820191906000526020600020905b815481529060010190602001808311610a3757829003601f168201915b505050505090806004018054610a6990612dde565b80601f0160208091040260200160405190810160405280929190818152602001828054610a9590612dde565b8015610ae25780601f10610ab757610100808354040283529160200191610ae2565b820191906000526020600020905b815481529060010190602001808311610ac557829003601f168201915b5050505050905085565b6000610af782611522565b9050919050565b60088054610b0b90612dde565b80601f0160208091040260200160405190810160405280929190818152602001828054610b3790612dde565b8015610b845780601f10610b5957610100808354040283529160200191610b84565b820191906000526020600020905b815481529060010190602001808311610b6757829003601f168201915b505050505081565b60008073ffffffffffffffffffffffffffffffffffffffff168273ffffffffffffffffffffffffffffffffffffffff1603610bff5760006040517f89c62b64000000000000000000000000000000000000000000000000000000008152600401610bf6919061262a565b60405180910390fd5b600360008373ffffffffffffffffffffffffffffffffffffffff1673ffffffffffffffffffffffffffffffffffffffff168152602001908152602001600020549050919050565b610c4e611415565b610c58600061181b565b565b60007f000000000000000000000000000000000000000000000000000000000000000060075410610cc0576040517f08c379a0000000000000000000000000000000000000000000000000000000008152600401610cb790612e92565b60405180910390fd5b6000801b600960008881526020019081526020016000206002015414610d1b576040517f08c379a0000000000000000000000000000000000000000000000000000000008152600401610d1290612efe565b60405180910390fd5b6000858585858a604051602001610d36959493929190612f7b565b6040516020818303038152906040528051906020012090506040518060a0016040528087815260200186815260200182815260200185815260200184815250600960008981526020019081526020016000206000820151816000019081610d9d9190613176565b506020820151816001019081610db39190613176565b50604082015181600201556060820151816003019081610dd39190613176565b506080820151816004019081610de99190613176565b50905050610df788886118e1565b60076000815480929190610e0a90613248565b91905055507faa0cbce6f9cbdc49109e8a515a78b476a1bcafd8aa8e1703d40bc7d362f748f68789604051610e40929190613290565b60405180910390a160019150509695505050505050565b6000600660009054906101000a900473ffffffffffffffffffffffffffffffffffffffff16905090565b606060018054610e9090612dde565b80601f0160208091040260200160405190810160405280929190818152602001828054610ebc90612dde565b8015610f095780601f10610ede57610100808354040283529160200191610f09565b820191906000526020600020905b815481529060010190602001808311610eec57829003601f168201915b5050505050905090565b610f25610f1e6115e7565b83836118ff565b5050565b610f316123b6565b6000801b600960008481526020019081526020016000206002015403610f8c576040517f08c379a0000000000000000000000000000000000000000000000000000000008152600401610f8390612d37565b60405180910390fd5b600960008381526020019081526020016000206040518060a0016040529081600082018054610fba90612dde565b80601f0160208091040260200160405190810160405280929190818152602001828054610fe690612dde565b80156110335780601f1061100857610100808354040283529160200191611033565b820191906000526020600020905b81548152906001019060200180831161101657829003601f168201915b5050505050815260200160018201805461104c90612dde565b80601f016020809104026020016040519081016040528092919081815260200182805461107890612dde565b80156110c55780601f1061109a576101008083540402835291602001916110c5565b820191906000526020600020905b8154815290600101906020018083116110a857829003601f168201915b50505050508152602001600282015481526020016003820180546110e890612dde565b80601f016020809104026020016040519081016040528092919081815260200182805461111490612dde565b80156111615780601f1061113657610100808354040283529160200191611161565b820191906000526020600020905b81548152906001019060200180831161114457829003601f168201915b5050505050815260200160048201805461117a90612dde565b80601f01602080910402602001604051908101604052809291908181526020018280546111a690612dde565b80156111f35780601f106111c8576101008083540402835291602001916111f3565b820191906000526020600020905b8154815290600101906020018083116111d657829003601f168201915b5050505050815250509050919050565b61120e848484610750565b6112226112196115e7565b85858585611a6e565b50505050565b606061123382611522565b50600061123e611c1f565b9050600081511161125e5760405180602001604052806000815250611289565b8061126884611cb1565b6040516020016112799291906132b9565b6040516020818303038152906040525b915050919050565b6000600560008473ffffffffffffffffffffffffffffffffffffffff1673ffffffffffffffffffffffffffffffffffffffff16815260200190815260200160002060008373ffffffffffffffffffffffffffffffffffffffff1673ffffffffffffffffffffffffffffffffffffffff16815260200190815260200160002060009054906101000a900460ff16905092915050565b61132d611415565b600073ffffffffffffffffffffffffffffffffffffffff168173ffffffffffffffffffffffffffffffffffffffff160361139f5760006040517f1e4fbdf7000000000000000000000000000000000000000000000000000000008152600401611396919061262a565b60405180910390fd5b6113a88161181b565b50565b60007f01ffc9a7000000000000000000000000000000000000000000000000000000007bffffffffffffffffffffffffffffffffffffffffffffffffffffffff1916827bffffffffffffffffffffffffffffffffffffffffffffffffffffffff1916149050919050565b61141d6115e7565b73ffffffffffffffffffffffffffffffffffffffff1661143b610e57565b73ffffffffffffffffffffffffffffffffffffffff161461149a5761145e6115e7565b6040517f118cdaa7000000000000000000000000000000000000000000000000000000008152600401611491919061262a565b60405180910390fd5b565b60006114ab6000836000611601565b9050600073ffffffffffffffffffffffffffffffffffffffff168173ffffffffffffffffffffffffffffffffffffffff160361151e57816040517f7e27328900000000000000000000000000000000000000000000000000000000815260040161151591906126c0565b60405180910390fd5b5050565b60008061152e83611d7f565b9050600073ffffffffffffffffffffffffffffffffffffffff168173ffffffffffffffffffffffffffffffffffffffff16036115a157826040517f7e27328900000000000000000000000000000000000000000000000000000000815260040161159891906126c0565b60405180910390fd5b80915050919050565b60006004600083815260200190815260200160002060009054906101000a900473ffffffffffffffffffffffffffffffffffffffff169050919050565b600033905090565b6115fc8383836001611dbc565b505050565b60008061160d84611d7f565b9050600073ffffffffffffffffffffffffffffffffffffffff168373ffffffffffffffffffffffffffffffffffffffff161461164f5761164e818486611f81565b5b600073ffffffffffffffffffffffffffffffffffffffff168173ffffffffffffffffffffffffffffffffffffffff16146116e057611691600085600080611dbc565b6001600360008373ffffffffffffffffffffffffffffffffffffffff1673ffffffffffffffffffffffffffffffffffffffff168152602001908152602001600020600082825403925050819055505b600073ffffffffffffffffffffffffffffffffffffffff168573ffffffffffffffffffffffffffffffffffffffff1614611763576001600360008773ffffffffffffffffffffffffffffffffffffffff1673ffffffffffffffffffffffffffffffffffffffff168152602001908152602001600020600082825401925050819055505b846002600086815260200190815260200160002060006101000a81548173ffffffffffffffffffffffffffffffffffffffff021916908373ffffffffffffffffffffffffffffffffffffffff160217905550838573ffffffffffffffffffffffffffffffffffffffff168273ffffffffffffffffffffffffffffffffffffffff167fddf252ad1be2c89b69c2b068fc378daa952ba7f163c4a11628f55a4df523b3ef60405160405180910390a4809150509392505050565b6000600660009054906101000a900473ffffffffffffffffffffffffffffffffffffffff16905081600660006101000a81548173ffffffffffffffffffffffffffffffffffffffff021916908373ffffffffffffffffffffffffffffffffffffffff1602179055508173ffffffffffffffffffffffffffffffffffffffff168173ffffffffffffffffffffffffffffffffffffffff167f8be0079c531659141344cd1fd0a4f28419497f9722a3daafe3b4186f6b6457e060405160405180910390a35050565b6118fb828260405180602001604052806000815250612045565b5050565b600073ffffffffffffffffffffffffffffffffffffffff168273ffffffffffffffffffffffffffffffffffffffff160361197057816040517f5b08ba18000000000000000000000000000000000000000000000000000000008152600401611967919061262a565b60405180910390fd5b80600560008573ffffffffffffffffffffffffffffffffffffffff1673ffffffffffffffffffffffffffffffffffffffff16815260200190815260200160002060008473ffffffffffffffffffffffffffffffffffffffff1673ffffffffffffffffffffffffffffffffffffffff16815260200190815260200160002060006101000a81548160ff0219169083151502179055508173ffffffffffffffffffffffffffffffffffffffff168373ffffffffffffffffffffffffffffffffffffffff167f17307eab39ab6107e8899845ad3d59bd9653f200f220920489ca2b5937696c3183604051611a6191906124b9565b60405180910390a3505050565b60008373ffffffffffffffffffffffffffffffffffffffff163b1115611c18578273ffffffffffffffffffffffffffffffffffffffff1663150b7a02868685856040518563ffffffff1660e01b8152600401611acd9493929190613332565b6020604051808303816000875af1925050508015611b0957506040513d601f19601f82011682018060405250810190611b069190613393565b60015b611b8d573d8060008114611b39576040519150601f19603f3d011682016040523d82523d6000602084013e611b3e565b606091505b506000815103611b8557836040517f64a0ae92000000000000000000000000000000000000000000000000000000008152600401611b7c919061262a565b60405180910390fd5b805181602001fd5b63150b7a0260e01b7bffffffffffffffffffffffffffffffffffffffffffffffffffffffff1916817bffffffffffffffffffffffffffffffffffffffffffffffffffffffff191614611c1657836040517f64a0ae92000000000000000000000000000000000000000000000000000000008152600401611c0d919061262a565b60405180910390fd5b505b5050505050565b606060088054611c2e90612dde565b80601f0160208091040260200160405190810160405280929190818152602001828054611c5a90612dde565b8015611ca75780601f10611c7c57610100808354040283529160200191611ca7565b820191906000526020600020905b815481529060010190602001808311611c8a57829003601f168201915b5050505050905090565b606060006001611cc084612069565b01905060008167ffffffffffffffff811115611cdf57611cde6127ed565b5b6040519080825280601f01601f191660200182016040528015611d115781602001600182028036833780820191505090505b509050600082602001820190505b600115611d74578080600190039150507f3031323334353637383961626364656600000000000000000000000000000000600a86061a8153600a8581611d6857611d676133c0565b5b04945060008503611d1f575b819350505050919050565b60006002600083815260200190815260200160002060009054906101000a900473ffffffffffffffffffffffffffffffffffffffff169050919050565b8080611df55750600073ffffffffffffffffffffffffffffffffffffffff168273ffffffffffffffffffffffffffffffffffffffff1614155b15611f29576000611e0584611522565b9050600073ffffffffffffffffffffffffffffffffffffffff168373ffffffffffffffffffffffffffffffffffffffff1614158015611e7057508273ffffffffffffffffffffffffffffffffffffffff168173ffffffffffffffffffffffffffffffffffffffff1614155b8015611e835750611e818184611291565b155b15611ec557826040517fa9fbf51f000000000000000000000000000000000000000000000000000000008152600401611ebc919061262a565b60405180910390fd5b8115611f2757838573ffffffffffffffffffffffffffffffffffffffff168273ffffffffffffffffffffffffffffffffffffffff167f8c5be1e5ebec7d5bd14f71427d1e84f3dd0314c0f7b2291e5b200ac8c7c3b92560405160405180910390a45b505b836004600085815260200190815260200160002060006101000a81548173ffffffffffffffffffffffffffffffffffffffff021916908373ffffffffffffffffffffffffffffffffffffffff16021790555050505050565b611f8c8383836121bc565b61204057600073ffffffffffffffffffffffffffffffffffffffff168373ffffffffffffffffffffffffffffffffffffffff160361200157806040517f7e273289000000000000000000000000000000000000000000000000000000008152600401611ff891906126c0565b60405180910390fd5b81816040517f177e802f0000000000000000000000000000000000000000000000000000000081526004016120379291906133ef565b60405180910390fd5b505050565b61204f838361227d565b61206461205a6115e7565b6000858585611a6e565b505050565b600080600090507a184f03e93ff9f4daa797ed6e38ed64bf6a1f01000000000000000083106120c7577a184f03e93ff9f4daa797ed6e38ed64bf6a1f01000000000000000083816120bd576120bc6133c0565b5b0492506040810190505b6d04ee2d6d415b85acef81000000008310612104576d04ee2d6d415b85acef810000000083816120fa576120f96133c0565b5b0492506020810190505b662386f26fc10000831061213357662386f26fc100008381612129576121286133c0565b5b0492506010810190505b6305f5e100831061215c576305f5e1008381612152576121516133c0565b5b0492506008810190505b6127108310612181576127108381612177576121766133c0565b5b0492506004810190505b606483106121a4576064838161219a576121996133c0565b5b0492506002810190505b600a83106121b3576001810190505b80915050919050565b60008073ffffffffffffffffffffffffffffffffffffffff168373ffffffffffffffffffffffffffffffffffffffff161415801561227457508273ffffffffffffffffffffffffffffffffffffffff168473ffffffffffffffffffffffffffffffffffffffff16148061223557506122348484611291565b5b8061227357508273ffffffffffffffffffffffffffffffffffffffff1661225b836115aa565b73ffffffffffffffffffffffffffffffffffffffff16145b5b90509392505050565b600073ffffffffffffffffffffffffffffffffffffffff168273ffffffffffffffffffffffffffffffffffffffff16036122ef5760006040517f64a0ae920000000000000000000000000000000000000000000000000000000081526004016122e6919061262a565b60405180910390fd5b60006122fd83836000611601565b9050600073ffffffffffffffffffffffffffffffffffffffff168173ffffffffffffffffffffffffffffffffffffffff16146123715760006040517f73c6ac6e000000000000000000000000000000000000000000000000000000008152600401612368919061262a565b60405180910390fd5b505050565b50805461238290612dde565b6000825580601f1061239457506123b3565b601f0160209004906000526020600020908101906123b291906123e8565b5b50565b6040518060a0016040528060608152602001606081526020016000801916815260200160608152602001606081525090565b5b808211156124015760008160009055506001016123e9565b5090565b6000604051905090565b600080fd5b600080fd5b60007fffffffff0000000000000000000000000000000000000000000000000000000082169050919050565b61244e81612419565b811461245957600080fd5b50565b60008135905061246b81612445565b92915050565b6000602082840312156124875761248661240f565b5b60006124958482850161245c565b91505092915050565b60008115159050919050565b6124b38161249e565b82525050565b60006020820190506124ce60008301846124aa565b92915050565b6000819050919050565b6124e7816124d4565b81146124f257600080fd5b50565b600081359050612504816124de565b92915050565b6000602082840312156125205761251f61240f565b5b600061252e848285016124f5565b91505092915050565b600081519050919050565b600082825260208201905092915050565b60005b83811015612571578082015181840152602081019050612556565b60008484015250505050565b6000601f19601f8301169050919050565b600061259982612537565b6125a38185612542565b93506125b3818560208601612553565b6125bc8161257d565b840191505092915050565b600060208201905081810360008301526125e1818461258e565b905092915050565b600073ffffffffffffffffffffffffffffffffffffffff82169050919050565b6000612614826125e9565b9050919050565b61262481612609565b82525050565b600060208201905061263f600083018461261b565b92915050565b61264e81612609565b811461265957600080fd5b50565b60008135905061266b81612645565b92915050565b600080604083850312156126885761268761240f565b5b60006126968582860161265c565b92505060206126a7858286016124f5565b9150509250929050565b6126ba816124d4565b82525050565b60006020820190506126d560008301846126b1565b92915050565b6000806000606084860312156126f4576126f361240f565b5b60006127028682870161265c565b93505060206127138682870161265c565b9250506040612724868287016124f5565b9150509250925092565b6000819050919050565b6127418161272e565b82525050565b600060a0820190508181036000830152612761818861258e565b90508181036020830152612775818761258e565b90506127846040830186612738565b8181036060830152612796818561258e565b905081810360808301526127aa818461258e565b90509695505050505050565b6000602082840312156127cc576127cb61240f565b5b60006127da8482850161265c565b91505092915050565b600080fd5b600080fd5b7f4e487b7100000000000000000000000000000000000000000000000000000000600052604160045260246000fd5b6128258261257d565b810181811067ffffffffffffffff82111715612844576128436127ed565b5b80604052505050565b6000612857612405565b9050612863828261281c565b919050565b600067ffffffffffffffff821115612883576128826127ed565b5b61288c8261257d565b9050602081019050919050565b82818337600083830152505050565b60006128bb6128b684612868565b61284d565b9050828152602081018484840111156128d7576128d66127e8565b5b6128e2848285612899565b509392505050565b600082601f8301126128ff576128fe6127e3565b5b813561290f8482602086016128a8565b91505092915050565b60008060008060008060c087890312156129355761293461240f565b5b600061294389828a0161265c565b965050602061295489828a016124f5565b955050604087013567ffffffffffffffff81111561297557612974612414565b5b61298189828a016128ea565b945050606087013567ffffffffffffffff8111156129a2576129a1612414565b5b6129ae89828a016128ea565b935050608087013567ffffffffffffffff8111156129cf576129ce612414565b5b6129db89828a016128ea565b92505060a087013567ffffffffffffffff8111156129fc576129fb612414565b5b612a0889828a016128ea565b9150509295509295509295565b612a1e8161249e565b8114612a2957600080fd5b50565b600081359050612a3b81612a15565b92915050565b60008060408385031215612a5857612a5761240f565b5b6000612a668582860161265c565b9250506020612a7785828601612a2c565b9150509250929050565b600082825260208201905092915050565b6000612a9d82612537565b612aa78185612a81565b9350612ab7818560208601612553565b612ac08161257d565b840191505092915050565b612ad48161272e565b82525050565b600060a0830160008301518482036000860152612af78282612a92565b91505060208301518482036020860152612b118282612a92565b9150506040830151612b266040860182612acb565b5060608301518482036060860152612b3e8282612a92565b91505060808301518482036080860152612b588282612a92565b9150508091505092915050565b60006020820190508181036000830152612b7f8184612ada565b905092915050565b600067ffffffffffffffff821115612ba257612ba16127ed565b5b612bab8261257d565b9050602081019050919050565b6000612bcb612bc684612b87565b61284d565b905082815260208101848484011115612be757612be66127e8565b5b612bf2848285612899565b509392505050565b600082601f830112612c0f57612c0e6127e3565b5b8135612c1f848260208601612bb8565b91505092915050565b60008060008060808587031215612c4257612c4161240f565b5b6000612c508782880161265c565b9450506020612c618782880161265c565b9350506040612c72878288016124f5565b925050606085013567ffffffffffffffff811115612c9357612c92612414565b5b612c9f87828801612bfa565b91505092959194509250565b60008060408385031215612cc257612cc161240f565b5b6000612cd08582860161265c565b9250506020612ce18582860161265c565b9150509250929050565b7f436572746966696361746520646f6573206e6f74206578697374000000000000600082015250565b6000612d21601a83612542565b9150612d2c82612ceb565b602082019050919050565b60006020820190508181036000830152612d5081612d14565b9050919050565b7f4e487b7100000000000000000000000000000000000000000000000000000000600052601160045260246000fd5b6000612d91826124d4565b915060008203612da457612da3612d57565b5b600182039050919050565b7f4e487b7100000000000000000000000000000000000000000000000000000000600052602260045260246000fd5b60006002820490506001821680612df657607f821691505b602082108103612e0957612e08612daf565b5b50919050565b6000606082019050612e24600083018661261b565b612e3160208301856126b1565b612e3e604083018461261b565b949350505050565b7f4d617820737570706c7920726561636865640000000000000000000000000000600082015250565b6000612e7c601283612542565b9150612e8782612e46565b602082019050919050565b60006020820190508181036000830152612eab81612e6f565b9050919050565b7f546f6b656e20494420616c726561647920657869737473000000000000000000600082015250565b6000612ee8601783612542565b9150612ef382612eb2565b602082019050919050565b60006020820190508181036000830152612f1781612edb565b9050919050565b600081905092915050565b6000612f3482612537565b612f3e8185612f1e565b9350612f4e818560208601612553565b80840191505092915050565b6000819050919050565b612f75612f70826124d4565b612f5a565b82525050565b6000612f878288612f29565b9150612f938287612f29565b9150612f9f8286612f29565b9150612fab8285612f29565b9150612fb78284612f64565b6020820191508190509695505050505050565b60008190508160005260206000209050919050565b60006020601f8301049050919050565b600082821b905092915050565b60006008830261302c7fffffffffffffffffffffffffffffffffffffffffffffffffffffffffffffffff82612fef565b6130368683612fef565b95508019841693508086168417925050509392505050565b6000819050919050565b600061307361306e613069846124d4565b61304e565b6124d4565b9050919050565b6000819050919050565b61308d83613058565b6130a16130998261307a565b848454612ffc565b825550505050565b600090565b6130b66130a9565b6130c1818484613084565b505050565b5b818110156130e5576130da6000826130ae565b6001810190506130c7565b5050565b601f82111561312a576130fb81612fca565b61310484612fdf565b81016020851015613113578190505b61312761311f85612fdf565b8301826130c6565b50505b505050565b600082821c905092915050565b600061314d6000198460080261312f565b1980831691505092915050565b6000613166838361313c565b9150826002028217905092915050565b61317f82612537565b67ffffffffffffffff811115613198576131976127ed565b5b6131a28254612dde565b6131ad8282856130e9565b600060209050601f8311600181146131e057600084156131ce578287015190505b6131d8858261315a565b865550613240565b601f1984166131ee86612fca565b60005b82811015613216578489015182556001820191506020850194506020810190506131f1565b86831015613233578489015161322f601f89168261313c565b8355505b6001600288020188555050505b505050505050565b6000613253826124d4565b91507fffffffffffffffffffffffffffffffffffffffffffffffffffffffffffffffff820361328557613284612d57565b5b600182019050919050565b60006040820190506132a560008301856126b1565b6132b2602083018461261b565b9392505050565b60006132c58285612f29565b91506132d18284612f29565b91508190509392505050565b600081519050919050565b600082825260208201905092915050565b6000613304826132dd565b61330e81856132e8565b935061331e818560208601612553565b6133278161257d565b840191505092915050565b6000608082019050613347600083018761261b565b613354602083018661261b565b61336160408301856126b1565b818103606083015261337381846132f9565b905095945050505050565b60008151905061338d81612445565b92915050565b6000602082840312156133a9576133a861240f565b5b60006133b78482850161337e565b91505092915050565b7f4e487b7100000000000000000000000000000000000000000000000000000000600052601260045260246000fd5b6000604082019050613404600083018561261b565b61341160208301846126b1565b939250505056fea26469706673582212203f9bf86438ded1110931f325a15d3a732136cb354b5bcbaa991a6b7c01c9be5c64736f6c634300081b0033",
  "linkReferences": {},
  "deployedLinkReferences": {}
}